{
  "contractName": "Lottery",
  "abi": [
    {
      "constant": true,
      "inputs": [],
      "name": "ticketPrice",
      "outputs": [
        {
          "name": "",
          "type": "uint256"
        }
      ],
      "payable": false,
      "stateMutability": "view",
      "type": "function"
    },
    {
      "constant": true,
      "inputs": [],
      "name": "ticketsAvailable",
      "outputs": [
        {
          "name": "",
          "type": "uint256"
        }
      ],
      "payable": false,
      "stateMutability": "view",
      "type": "function"
    },
    {
      "constant": true,
      "inputs": [
        {
          "name": "",
          "type": "uint256"
        }
      ],
      "name": "owner",
      "outputs": [
        {
          "name": "",
          "type": "address"
        }
      ],
      "payable": false,
      "stateMutability": "view",
      "type": "function"
    },
    {
      "constant": true,
      "inputs": [],
      "name": "lotteryStart",
      "outputs": [
        {
          "name": "",
          "type": "uint256"
        }
      ],
      "payable": false,
      "stateMutability": "view",
      "type": "function"
    },
    {
      "inputs": [],
      "payable": false,
      "stateMutability": "nonpayable",
      "type": "constructor"
    },
    {
      "constant": false,
      "inputs": [],
      "name": "newLottery",
      "outputs": [],
      "payable": false,
      "stateMutability": "nonpayable",
      "type": "function"
    },
    {
      "constant": false,
      "inputs": [
        {
          "name": "ticket",
          "type": "uint256"
        }
      ],
      "name": "purchaseTicket",
      "outputs": [],
      "payable": true,
      "stateMutability": "payable",
      "type": "function"
    },
    {
      "constant": false,
      "inputs": [],
      "name": "completeLottery",
      "outputs": [],
      "payable": false,
      "stateMutability": "nonpayable",
      "type": "function"
    },
    {
      "constant": true,
      "inputs": [
        {
          "name": "ticket",
          "type": "uint256"
        }
      ],
      "name": "getTicketOwner",
      "outputs": [
        {
          "name": "",
          "type": "address"
        }
      ],
      "payable": false,
      "stateMutability": "view",
      "type": "function"
    }
  ],
  "bytecode": "0x608060405234801561001057600080fd5b506106fb806100206000396000f30060806040526004361061008e576000357c0100000000000000000000000000000000000000000000000000000000900463ffffffff1680631209b1f61461009357806318253234146100be578063a123c33e146100e9578063ad09340914610156578063b1e2cb03146101c3578063b948348c146101da578063cd8cc844146101fa578063ddbf585614610225575b600080fd5b34801561009f57600080fd5b506100a861023c565b6040518082815260200191505060405180910390f35b3480156100ca57600080fd5b506100d3610242565b6040518082815260200191505060405180910390f35b3480156100f557600080fd5b5061011460048036038101908080359060200190929190505050610248565b604051808273ffffffffffffffffffffffffffffffffffffffff1673ffffffffffffffffffffffffffffffffffffffff16815260200191505060405180910390f35b34801561016257600080fd5b506101816004803603810190808035906020019092919050505061027b565b604051808273ffffffffffffffffffffffffffffffffffffffff1673ffffffffffffffffffffffffffffffffffffffff16815260200191505060405180910390f35b3480156101cf57600080fd5b506101d86102b8565b005b6101f8600480360381019080803590602001909291905050506103c8565b005b34801561020657600080fd5b5061020f61056d565b6040518082815260200191505060405180910390f35b34801561023157600080fd5b5061023a610573565b005b60015481565b60025481565b60036020528060005260406000206000915054906101000a900473ffffffffffffffffffffffffffffffffffffffff1681565b60006003600083815260200190815260200160002060009054906101000a900473ffffffffffffffffffffffffffffffffffffffff169050919050565b600062093a80600054014210151515610339576040517f08c379a00000000000000000000000000000000000000000000000000000000081526004018080602001828103825260198152602001807f6c6f747465727920686173206e6f7420636f6d706c657465640000000000000081525060200191505060405180910390fd5b600090505b6002548110156103a85760006003600083815260200190815260200160002060006101000a81548173ffffffffffffffffffffffffffffffffffffffff021916908373ffffffffffffffffffffffffffffffffffffffff160217905550808060010191505061033e565b6064600281905550662386f26fc100006001819055504260008190555050565b600073ffffffffffffffffffffffffffffffffffffffff166003600083815260200190815260200160002060009054906101000a900473ffffffffffffffffffffffffffffffffffffffff1673ffffffffffffffffffffffffffffffffffffffff1614151561049f576040517f08c379a000000000000000000000000000000000000000000000000000000000815260040180806020018281038252601d8152602001807f746865207469636b657420686173206265656e2070757263686173656400000081525060200191505060405180910390fd5b60015434141515610518576040517f08c379a000000000000000000000000000000000000000000000000000000000815260040180806020018281038252601c8152602001807f73656e7420616e20696e76616c6964207469636b65742070726963650000000081525060200191505060405180910390fd5b336003600083815260200190815260200160002060006101000a81548173ffffffffffffffffffffffffffffffffffffffff021916908373ffffffffffffffffffffffffffffffffffffffff16021790555050565b60005481565b600062093a806000540142101515156105f4576040517f08c379a00000000000000000000000000000000000000000000000000000000081526004018080602001828103825260198152602001807f6c6f747465727920686173206e6f7420636f6d706c657465640000000000000081525060200191505060405180910390fd5b600360006002544381151561060557fe5b06815260200190815260200160002060009054906101000a900473ffffffffffffffffffffffffffffffffffffffff169050600073ffffffffffffffffffffffffffffffffffffffff168173ffffffffffffffffffffffffffffffffffffffff161415156106cc573073ffffffffffffffffffffffffffffffffffffffff166108fc3073ffffffffffffffffffffffffffffffffffffffff16319081150290604051600060405180830381858888f193505050501580156106ca573d6000803e3d6000fd5b505b505600a165627a7a7230582066f4a19a740a4e3865c9a515c70d6743bddb982012a073f5a991fe09d411bbb70029",
  "source": "pragma solidity ^0.4.24;\n\ncontract Lottery {\n\n    uint public lotteryStart;\n    uint public ticketPrice;\n    uint public ticketsAvailable;\n\n    mapping(uint => address) public owner;\n\n    modifier lotteryComplete {require(block.timestamp >= (lotteryStart + 7 days), \"lottery has not completed\"); _;}\n\n    constructor() public {\n    }\n\n    function newLottery() public lotteryComplete {\n        for (uint ticket = 0; ticket < ticketsAvailable; ticket++) {\n            owner[ticket] = address(0);\n        }\n\n        ticketsAvailable = 100;\n        ticketPrice = 10 finney;\n        lotteryStart = block.timestamp;\n    }\n\n    function purchaseTicket(uint ticket) public payable {\n        require(owner[ticket] == address(0), \"the ticket has been purchased\");                    // the ticket hasn't been purchased\n        require(msg.value == ticketPrice, \"sent an invalid ticket price\");                      // value sent is the ticket price\n\n        owner[ticket] = msg.sender;\n    }\n\n    function completeLottery() public lotteryComplete {\n        address winner = owner[block.number % ticketsAvailable];\n\n        if (winner != address(0)) {\n            address(this).transfer(address(this).balance);\n        }\n    }\n\n    function getTicketOwner(uint ticket) public view returns(address) {\n        return owner[ticket];\n    }\n}\n",
  "sourcePath": "/Users/kyle.rose/Personal/programming/ethlotto.io/contract/contracts/Lottery.sol",
  "compiler": {
    "name": "solc",
    "version": "0.4.24+commit.e67f0147.Emscripten.clang"
  },
  "schemaVersion": "2.0.1",
  "updatedAt": "2018-08-26T01:20:03.974Z"
}